:020000040800F2
:1000000000090020A9010008F30D00081B0D0008DD
:10001000F10D0008150300082D1200080000000073
:10002000000000000000000000000000F70D0008C4
:100030001703000800000000F50D0008F90D000886
:10004000C3010008C3010008C3010008C301000880
:10005000C3010008C3010008C3010008C301000870
:10006000C3010008C3010008C3010008C301000860
:10007000C3010008C3010008C3010008C301000850
:10008000C3010008C3010008C3010008000000000C
:10009000000000000000000000000000C301000894
:1000A000C3010008C3010008C3010008C301000820
:1000B000C3010008C3010008C3010008C301000810
:1000C000C3010008C3010008C3010008C301000800
:1000D000C3010008E9110008C30100080000000086
:1000E000C3010008C3010008C301000800000000AC
:1000F000000000000000000000000000C301000834
:1001000000000000C3010008C3010008C30100088B
:1001100000000000000000000000000000000000DF
:10012000C3010008C3010008C3010008C30100089F
:10013000C3010008000000000000000000000000F3
:10014000000000000000000000000000C3010008E3
:10015000C3010008C3010008C3010008C30100086F
:10016000C3010008C30100080000000000000000F7
:10017000000000000000000000000000000000007F
:1001800000000000C30100080000000000000000A3
:10019000C3010008DFF80CD000F0AAF800480047BF
:1001A0006D170008000900200648804706480047F0
:1001B000FEE7FEE7FEE7FEE7FEE7FEE7FEE7FEE717
:1001C000FEE7FEE7850E0008950100082DE9F05FC7
:1001D0000546002092469B468846064681464024B6
:1001E0001BE0284641464746224600F070F8534639
:1001F0005A46C01A914110D311461846224600F0C3
:1002000057F82D1A67EB01084F46224601200021BE
:1002100000F04EF817EB00094E41201EA4F1010436
:10022000DFDC484631462A464346BDE8F09FD2B25D
:1002300001E000F8012B491EFBD270470022F6E7CF
:1002400010B513460A4604461946FFF7F0FF20464C
:1002500010BD30B505462A460B4612F8010B13F8BF
:10026000014B08B1A042F8D01CB1002802D06D1C8F
:10027000F1E7284630BD421C10F8011B0029FBD1D4
:10028000801A704730B50B46014600202022012419
:1002900009E021FA02F59D4205D303FA02F5491B54
:1002A00004FA02F52844151EA2F10102F1DC30BD6A
:1002B000202A04DB203A00FA02F100207047914026
:1002C000C2F1200320FA03F3194390407047202A1B
:1002D00004DB203A21FA02F00021704721FA02F3F0
:1002E000D040C2F1200291400843194670470000F7
:1002F000064C074D06E0E06840F0010394E8070073
:1003000098471034AC42F6D3FFF748FF201B000893
:10031000401B0008FEE7704770B5044600F0E4F8A3
:100320000546601C02D004480078044400F0DCF864
:10033000401BA042FAD370BD080000202DE9F84F01
:10034000DFF860B100224FF001084FF0030A4FF0D0
:100350000F090BF1040E00BF0B6808FA02F42340EA
:10036000A3426ED14D68022D01D0122D0ED1D508B9
:1003700000EB850CDCF820505607F70E09FA07F65B
:10038000B5430E69BE402E43CCF820600668550088
:100390000F790AFA05FC07F0030726EA0C06AF40BE
:1003A000374307604E68012E05D0022E03D0112E70
:1003B00001D0122E0ED18668CF6826EA0C06AF4017
:1003C000374387604668A6430C79C4F30014944011
:1003D00034434460C6688C6826EA0C06AC4034435B
:1003E000C4604C68E40056D52F4C256845F4804520
:1003F0002560246822F0030504F4804400942B4C0B
:100400002E19D6F8084895072F0F09FA07F5AC43BF
:10041000274DA84201D1002515E0264DA84201D163
:10042000012510E0244DA84201D102250BE0234D07
:10043000A84201D1032506E0214DA84202D104259E
:1004400001E028E00725BD402543C6F80858DBF841
:1004500000405D464E689C43F60300D51C432C606B
:10046000DEF8004075464E689C43B60300D51C4339
:100470002C600C4D08352C684E689C43F60200D564
:100480001C432C60074D0C352C684E689C43B6020B
:1004900000D51C432C60521C102AFFF45DAFBDE850
:1004A000F88F0000003C0140443802400030014019
:1004B000000002400004024000080240000C02401C
:1004C000001002400069084000D0012070474269D6
:1004D00031EA020200D10904816170470AB18161E9
:1004E00070470904FBE7000001488068704700007E
:1004F000080000200248816802781144816070473A
:10050000080000200B4810B5016841F4007101603B
:10051000016841F480610160016841F4807101600B
:10052000032000F06FF8002000F006F800F024F837
:10053000002010BD003C024070B50D4D04464FF444
:100540007A712878B1FBF0F00A490968B1FBF0F044
:1005500000F0E0FA48B9102C07D200222146501EC4
:1005600000F030F800206C6070BD012070BD00000C
:1005700008000020140000200A4808B5016841F472
:1005800080410160006800F4804000900548001F31
:10059000016841F080510160006800F080500090D7
:1005A00008BD000044380240002809DB00F01F02AB
:1005B000012191404009800000F1E020C0F80011C5
:1005C00070470000F0B40E4B1B680C46C3F30223C7
:1005D000C3F10705042D00D90425191D072901D2EF
:1005E000002300E0DB1E012606FA05F1491E21402A
:1005F00099409E40761E16403143F0BC00F03CBE50
:100600000CED00E0064900F0070208684FF6FF0312
:10061000184040EA0220034A104308607047000077
:100620000CED00E00000FA052DE9F0470E4605004C
:1006300065D0DFF81481D8F80000F7B200F00F00A1
:10064000B04207D288F80070D8F8000000F00F0020
:10065000B04254D128683D4C810712D5400703D5DC
:10066000206840F4E05020602878000703D5206817
:1006700040F4604020602068A96820F0F000084342
:1006800020602878C0072DD03049686808390128D3
:1006900012D0022813D0032811D009688907002935
:1006A0002DDA216821F0030101432160FFF71CFFCF
:1006B000814641F2883A0EE009688903EFE709684C
:1006C0008901ECE7FFF710FFA0EB0901514502D9C2
:1006D0000320BDE8F0872068696800F00C00B0EBEB
:1006E000810FEFD1D8F80010404601F00F01B14260
:1006F00007D90770006800F00F00B04201D0012058
:10070000E7E72878400705D52068E96820F4E0503D
:10071000084320602878000706D52068296920F45E
:10072000604040EAC100206000F036F82168084AC5
:10073000C1F30311515CC840064908600020FFF76F
:10074000FBFE0020C5E70000003C024008380240E4
:10075000071B0008140000200448054900680968C8
:10076000044AC1F38221515CC84070471400002044
:1007700008380240171B000804480549006809684A
:10078000044AC1F34231515CC84070471400002054
:1007900008380240171B0008154810B5006810F013
:1007A0000C02144813D04110042A0FD0082A0ED18D
:1007B0000F4C241F2268236802F03F025B0207D51A
:1007C0002068C0F38810A0FB010106E0084610BDB8
:1007D0002168C1F38811A1FB00010023FFF7F6FC9B
:1007E0002168C1F30141491C4900B0FBF1F010BD83
:1007F000083802400024F4002DE9F84F050076D0B7
:100800002878DFF8F8B2BE4CC00749D0DBF80010FA
:100810005846C1F38101012908D00068C0F3810066
:1008200002280AD1201D0068400206D520688003F6
:1008300036D568680028E2D032E06868B0F5803FBD
:1008400010D0B0F5A02F206810D020F480302060A8
:10085000206820F4802020606868A0B1FFF744FE83
:1008600006460CE0206840F48030F4E740F4802035
:100870002060F7E7FFF738FE801B642873D82068F4
:100880008003F7D50CE0FFF72FFE064605E000BF1A
:10089000FFF72AFE801B6428F0D820688003F7D475
:1008A0002878DFF8608280074FF000093ED5DBF83A
:1008B0000010584611F00C0F09D00068C0F38100F9
:1008C00002280BD18D48001F0068400206D4206822
:1008D000800715D5E868012809D111E0E868B8B1AA
:1008E0000120C8F80000FFF7FFFD064605E002E121
:1008F000FFF7FAFD801B0228C0D820688007F7D5D3
:100900002068296920F0F80040EAC10020600DE06D
:10091000C8F80090FFF7E8FD064604E0FFF7E4FDA5
:10092000801B02281FD820688007F7D4287800078A
:1009300022D5724E744869696C3671B1012101602B
:10094000FFF7D2FD074604E0FFF7CEFDC01B0228EB
:1009500009D830688007F7D50EE0C0F80090FFF79F
:10096000C3FD074605E083E0FFF7BEFDC01B02287C
:100970007ED830688007F7D42878400768D5DFF83C
:100980007CA100270AF1380ADAF80000C0000BD475
:10099000DAF8001041F08051CAF80010DAF80000CF
:1009A000012700F080500090584E3068C00510D4E8
:1009B000306840F480703060FFF796FD009005E0ED
:1009C000FFF792FD0099401A022851D83068C005FF
:1009D000F6D54A4EA868683601280FD00528306839
:1009E00010D020F001003060306820F0040030604A
:1009F000A868B8B1FFF778FD00900FE0306840F0CC
:100A00000100F4E740F004003060F7E7FFF76CFD09
:100A10000099411A41F28830814264D830688007D9
:100A2000F4D50EE0FFF760FD009007E0FFF75CFDF6
:100A30000099411A41F28830814254D830688007C9
:100A4000F4D42FB1DAF8001021F08051CAF8001068
:100A5000A869C0B3DBF80010C1F3810102294AD0B4
:100A60000228484607D0C8F86000FFF73DFD00E0C7
:100A700039E005463AE04746C8F86000FFF734FD24
:100A8000064604E0FFF730FD801B02282BD82068C3
:100A90008001F7D4D5E907010843A96A1C4A49082F
:100AA00002EB01416A6A41EA8211084395F82C1071
:100AB00040EA01611148001F016001203866FFF71C
:100AC00013FD054605E014E0FFF70EFD401B02286C
:100AD00009D820688001F7D50BE000BFFFF704FDBF
:100AE000401B022802D90320BDE8F88F206880014E
:100AF000F4D40020F8E70120F6E7000008380240AF
:100B00000038024000004742800E4742007000401B
:100B10000000FFFF10B5401EB0F1807F01D301201F
:100B200010BD4FF0E02460610F21601700F0A4FBBE
:100B30000020A06107202061002010BD70B50400D6
:100B400004D094F83900002510B106E0012070BDF2
:100B500084F83850204600F023F8242084F8390027
:100B60002068C16821F40051C160204600F0B4F94A
:100B70002068016921F4904101612068416921F0F8
:100B80002A0141612068C16841F40051C160E563F8
:100B9000202084F8390084F83A00002070BD00005D
:100BA00070B586B0044614216846FFF747FB284E0F
:100BB000236800222749022407252748B34227D16A
:100BC000244A1432136843F010031360126802F0D1
:100BD000100205920A6842F001020A60096801F0F9
:100BE000010105914FF4C061CDE90014012102918A
:100BF0000321CDE903156946FFF7A0FB002211464A
:100C00002520FFF7DFFC2520FFF7CEFC06B070BDE6
:100C1000124EB342FAD10F4B10331E6846F4003621
:100C20001E601B6803F4003305930B6843F0010357
:100C30000B60096801F0010105910C210091CDE9DB
:100C40000142CDE903256946FFF778FBDEE70000A6
:100C500000100140303802400000024000440040D3
:100C60002DE9F843044690F839001F4616460D4614
:100C7000202850D1A5B19EB194F8380001284AD05F
:100C8000012084F838004FF00008C4F83C8021208F
:100C900084F83900FFF728FCA6848146E68426E024
:100CA0000120BDE8F883E08C401EE084A0684B463C
:100CB000B0F5805F4FF000024FF0800120460097B2
:100CC00003D000F05FFAE8B90DE000F05BFAC8B9B4
:100CD00028882168C0F308004860206908B16D1CAD
:100CE00005E0AD1C03E0216815F8010B4860E08CBD
:100CF0000028D8D14B46002240212046009700F022
:100D000041FA08B10320CCE7202084F8390084F8A8
:100D100038800020C5E70220C3E7FEE72DE9F04157
:100D200086B014216846FFF789FA2C480024016830
:100D300041F004010160016801F0040105910168BE
:100D400041F080010160016801F0800105910168B6
:100D500041F001010160016801F0010105910168A4
:100D600041F00201016000681D4F00F00200059093
:100D7000002220213846FFF7B1FBDFF868804FF4EE
:100D8000E076002231464046FFF7A8FB4FF40050C2
:100D900000901548CDE9010469464046FFF7CEFAB8
:100DA000202000900125CDE901546946384603947E
:100DB000FFF7C4FAA803CDE90004022002906946B7
:100DC0000A48FFF7BBFA0096CDE901546946404650
:100DD0000394FFF7B3FA06B0BDE8F0813038024063
:100DE0000000024000080240000021100004024000
:100DF000FEE7704770477047FFF77CBB30B593B094
:100E000030216846FFF71AFA14210CA8FFF716FAEA
:100E10001A480024016841F080510160006800F028
:100E2000805011901648016821F4404141F400417E
:100E300001600068022500F44040119001200390F9
:100E40001020009506950490CDE907404FF4A87056
:100E5000099004200A9007200B906846FFF7CCFC0D
:100E60000F20CDE90C05E802CDE90E4002210CA8C7
:100E70001094FFF7D9FB13B030BD0000403802409A
:100E8000007000401048016841F4700101600F4893
:100E9000016841F0010101600C4A00210832116033
:100EA00002680B4B1A400260031D0A4A1A6002686E
:100EB00022F48022026005480C3001600249580685
:100EC000803908607047000088ED00E0003802407B
:100ED000FFFFF6FE103000242DE9F04104460068C3
:100EE0000169E26821F44051114301612169A06860
:100EF000E26908436169114322680843D16849F2F5
:100F00000C6399430143D16020684169A26921F4CF
:100F1000407111434161E2696425B2F5004F974881
:100F2000974922684FF032083FD08A4201D082426E
:100F30007CD1FFF721FC00EBC00101EB00106168E0
:100F40008900B0FBF1F6FFF717FC00EBC00101EBE5
:100F5000001061688900B0FBF1F0B0FBF5F06FF0B4
:100F60001801484306EB800108EB0110B0FBF5F0D7
:100F700000F0F006FFF700FC00EBC00101EB0010F1
:100F800061688900B0FBF1F0B0FBF5F006EB0016EC
:100F9000FFF7F2FB00EBC00101EB00106168890074
:100FA000B0FBF1F7FFF7E8FBD2E08A4201D08242C2
:100FB0003DD1FFF7E1FB00EBC00101EB00106168E0
:100FC0004900B0FBF1F0B0FBF5F00601FFF7D4FBF0
:100FD00000EBC00101EB001061684900B0FBF1F7C4
:100FE000FFF7CAFB00EBC00101EB0010616849008C
:100FF000B0FBF1F0B0FBF5F06FF01801484307EBE0
:10100000800108EBC100B0FBF5F000F0F80006EB42
:101010004006FFF7B1FB00EBC00101EB0010616877
:101020004900B0FBF1F7FFF7A7FB3CE055E0FFF705
:1010300093FB00EBC00101EB001061684900B0FBBD
:10104000F1F0B0FBF5F00601FFF786FB00EBC00105
:1010500001EB001061684900B0FBF1F7FFF77CFB82
:1010600000EBC00101EB001061684900B0FBF1F03A
:10107000B0FBF5F06FF01801484307EB800108EB77
:10108000C100B0FBF5F000F0F80006EB4006FFF7FA
:1010900063FB00EBC00101EB001061684900B0FB8D
:1010A000F1F7FFF759FB00EBC00101EB001061689D
:1010B0004900B0FBF1F0B0FBF5F06FF018014843C8
:1010C00007EB800108EBC100B0FBF5F000F0070072
:1010D000216830448860BDE8F081FFF73DFB00EBFC
:1010E000C00101EB001061688900B0FBF1F6FFF769
:1010F00033FB00EBC00101EB001061688900B0FB1D
:10110000F1F0B0FBF5F06FF01801484306EB8001F9
:1011100008EB0110B0FBF5F000F0F006FFF71CFB48
:1011200000EBC00101EB001061688900B0FBF1F039
:10113000B0FBF5F006EB0016FFF70EFB00EBC0016D
:1011400001EB001061688900B0FBF1F7FFF704FBC9
:1011500000EBC00101EB001061688900B0FBF1F009
:10116000B0FBF5F06FF01801484307EB800108EB86
:101170000110B0FBF5F000F00F00A9E700140140EA
:10118000001001402DE9F041984617460E460446EE
:10119000069D1DE0681C1BD02DB1FFF7A5F9A0EB43
:1011A0000800A84214D92068C16821F4D071C16038
:1011B0002068416921F001014161202084F8390053
:1011C00084F83A00002084F838000320BDE8F0815C
:1011D0002068006836EA000004D00020B842D9D068
:1011E0000020F3E70120F9E770B50C4801680C4CCA
:1011F0000C4D89060DD54068C1B220882A18401CC4
:10120000208011702088C0F30900208006A000F023
:101210000FF8218800202944487070BD001001405B
:10122000000000201800002025630000FEE70000F9
:101230000FB4054B10B503A9044A029800F03CF81E
:1012400010BC5DF814FB00005117000804000020DA
:101250000FB4084B10B504A902AA039800F02CF8AB
:10126000044602A9002000F003F9204610BC5DF8F6
:1012700014FB0000711400080907090E002804DBA4
:1012800000F1E02080F80014704700F00F0000F13A
:10129000E02080F8141D704702E008C8121F08C142
:1012A000002AFAD170477047002001E001C1121FE7
:1012B000002AFBD1704700002DE9FF4F8BB09A4602
:1012C0000F460546002606E025280BD052460D990C
:1012D00090476D1C761C28780028F5D10FB0304659
:1012E000BDE8F08F0024A0460122604900E00443DD
:1012F00015F8013F203B02FA03F00842F7D12878A5
:101300002E2817D115F8010F44F004042A280ED016
:101310006FF02F022878A0F1300109290AD808EBD4
:10132000880102EB410100EB01086D1CF2E757F860
:10133000048B6D1C287869283ED006DC0028CDD0AF
:1013400063280BD0642804D136E0732810D07528A8
:101350004BD052460D999047761C85E017F8040B48
:101360008DF8000000208DF80100E946012003E01F
:1013700057F8049B4FF0FF3061074FF0000401D491
:101380000AE0641C44450DDA8442FADB19F80410C3
:101390000029F6D106E0641C8442FCDB19F8041035
:1013A0000029F8D1264404E019F8010B52460D99A2
:1013B0009047641EF8D257E001CF4FF00A0B002887
:1013C00002DA40422D2102E0210504D52B218DF8BF
:1013D0002410012103E0E10705D02021F7E70DF1FA
:1013E000200908910CE00021F9E701CF4FF00A0B2A
:1013F000F9E75946FEF746FF01F1300209F8012DE1
:101400000028F6D1ADEB090000F1200B600701D4F4
:101410004FF00108D84502DDA8EB0B0000E00020EA
:101420008046002406E009A85246005D0D999047C9
:10143000641C761C08988442F5DB04E03020524698
:101440000D999047761CB8F10001A8F10108F5DC70
:1014500005E019F8010B52460D999047761CBBF137
:101460000001ABF1010BF4DC6D1C34E7092801002D
:101470000A68531C0B6010707047000070B50D4671
:101480000646FFF731F8044608E031460748FEF704
:10149000E0FE18B100F018F8012070BDFFF724F845
:1014A000001BA842F1D3002070BD000018000020EE
:1014B0000020044902460A54401C80B23228FAD364
:1014C000704700001804002000210648064B04E085
:1014D000028899540288521E02800288002AF7D19D
:1014E0000180704700000020180000203EB5002455
:1014F0004FF47A7540A000F0A3FA454803E045A0F8
:1015000000F09EFA494800F08DFA71E048A043E0EF
:1015100048A000F095FA4E48F5E74EA000F090FA8A
:1015200052A000F07FFA40F6C410FEF7F5FEFFF778
:10153000CBFF34E050A000F083FA574955A257A0E2
:101540008DE80700A1F1140355A258A15A48FFF7EE
:101550007FFE594800F066FA42F21071D6E757A0B4
:1015600000F06EFA5E4800F05DFA41F28831CDE796
:101570005CA000F065FA6148C5E761A000F060FA80
:101580006348C0E763A000F05BFA4348143000F002
:1015900049FA40F6B83164A0FFF770FF18B1641C37
:1015A000E4B20A2C26D0C820FEF7B6FE0A2CF8D2E8
:1015B000DFE804F00D0C0B0A09080706050EE1E749
:1015C000DBE7D5E7CBE7B5E7A7E7A1E797E791E743
:1015D00057A000F035FA5C4800F024FA5B48FEF7AB
:1015E0004AFE5A4982B22B4601F27440FFF738FB9B
:1015F00029468BE73EBD000073656E645F737472AD
:10160000696E672861745F74657374290D0A000040
:101610005C1A000873656E645F737472696E672884
:101620006563686F4F6666290D0A0000611A00083D
:101630004F4B000073656E645F737472696E672848
:1016400073746174696F6E5F6D6F6465290D0A0054
:10165000681A000873656E645F737472696E672838
:1016600072657374617274290D0A000041542B5223
:1016700053540D0A0000000073656E645F7374724A
:10168000696E6728636F6E6563745F746F5F415046
:10169000290D0A00220D0A00CA1A0008222C220075
:1016A00041542B43574A41503D2200002573257376
:1016B0002573257325730000CC04002073656E64C8
:1016C0005F737472696E6728636F6E6563745F74AD
:1016D0006F5F41505F737473747573290D0A000056
:1016E000761A000873656E645F737472696E67289A
:1016F0006765745F4950290D0A000000901A0008C0
:101700004E6F4D756C74436F6E6E0D0A00000000D5
:10171000821A0008636F6E6E65637420746F2073A5
:1017200065727665720D0A00434F4E4E4543540074
:10173000696E666F2061626F757420636F6E6E658F
:1017400063743A0D0A000000A71A00081800002070
:1017500005490968C90105D54FF060410A68002AAA
:10176000FCD0087070470000FCED00E092B0FEF77E
:10177000C9FEFFF743FBFFF7D1FA744872494FF4F3
:10178000E13600240160C0E901640C27C460C0E9AF
:1017900004478461C461FFF7D1F96C4D6C48403D4A
:1017A0002860C5E90164EC60C5E90447AC612846DE
:1017B000EC61FFF7C3F90F942868C16841F020017C
:1017C000C160FFF793FE63A363A267A10FA8FFF7B1
:1017D0003FFD0FA8FEF74FFD82B24FF47A752B46FE
:1017E0000FA95A48FFF73CFA61A1D1E90001CDE900
:1017F0001001342102A8FEF721FD012740F2093B28
:101800004FF4FA69BE03DFF87081AA4601E0012FA8
:1018100037D1002310AA59A102A8FFF719FD02A988
:1018200058A0FFF705FD5CA0FFF702FD02A8FEF738
:1018300022FD034647A0CDE9000444485D4A5EA16D
:101840004030FFF705FD4148403000F0EBF8322012
:10185000FEF762FD5BA0FFF7EBFC02A800F0E2F8E8
:101860005D4800F0EDF8FFF723FE4D4649465BA0CA
:10187000FFF704FE18B100275AA000F0E1F8A946CE
:10188000554600235A465AA102A8FFF7E1FC02A9D7
:101890003CA0FFF7CDFC40A0FFF7CAFC02A8FEF772
:1018A000EAFC03462BA0CDE900042848414A42A1A6
:1018B0004030FFF7CDFC2548403000F0B3F832202F
:1018C000FEF72AFD02A800F0ADF831464046FEF7CB
:1018D000F9FD01280FD14B46102247A11B48FFF705
:1018E000BFF931464046FEF7EDFD01464B46042266
:1018F0001648FFF7B5F931464046FEF7E3FD0146CD
:101900004B4604221148FFF7ABF929463EA0FFF7EA
:10191000B5FD20B14FF480713D48FEF7D8FD294652
:101920003CA0FFF7ABFD18B140213948FEF7CFFDD1
:1019300029463AA0FFF7A2FD00283FF468AF8021B6
:101940003348FEF7C4FD62E7004400408C040020E9
:10195000001001400D0A00000D0A494E495420466E
:10196000494E495348454400257325730000000043
:10197000696D2053544D0000000402402573256317
:10198000000000006164635F76616C7565203D2036
:1019900025730D0A0000000073656E645F54535098
:1019A0005F73697A656F665F6D6573736167650DF7
:1019B0000A0000009B1A000825732564257325631F
:1019C0000000000073656E645F5453505F6D657373
:1019D000736167650D0A00001800002053454E44EE
:1019E000204F4B0073656E6420454E440D0A000085
:1019F0002564256300000000535645544949494970
:101A0000494B200A0D0000004C4544310000000005
:101A1000000802404C454432000000004C4544336D
:101A20000000000010B50446FEF725FC214682B2F6
:101A3000BDE8104064230148FFF712B94C040020B0
:101A400010B50446FEF717FC214682B2BDE81040EF
:101A500064230148FFF704B98C04002041540D0AA7
:101A600000415445300D0A0041542B43574D4F441B
:101A7000453D310D0A0041542B43574A41503F0D1B
:101A80000A0041542B4349504D55583D300D0A0032
:101A900041542B43494653520D0A0041542B4349AC
:101AA0005053454E443D0041542B434950535441FB
:101AB0005455530D0A004D5453343234442D3839A3
:101AC000343200000000000000003969666472666C
:101AD000727200000000000000000000000041548D
:101AE0002B43495053544152543D22544350222CCD
:101AF000223139322E3136382E382E313032222CE6
:101B0000393037360D0A00000000000000000001E7
:101B10000203040607080900000000010203040094
:101B2000401B000800000020180000009812000868
:101B3000581B000818000020E8080000A812000840
:101B40000000000000000000010000001000000084
:081B5000000000000024F40075
:040000050800019559
:00000001FF
